:020000040804EE
:1000000000000420650A0408E5090408EB09040857
:10001000F1090408F7090408FD09040800000000BC
:10002000000000000000000000000000030A0408B7
:10003000110A0408000000001F0A04082D0A040821
:10004000B50A0408B50A0408B50A0408B50A040884
:10005000B50A0408B50A0408B50A0408B50A040874
:10006000B50A0408B50A0408B50A0408B50A040864
:10007000B50A0408B50A0408B50A0408B50A040854
:10008000B50A0408B50A0408B50A0408B50A040844
:10009000B50A0408B50A0408B50A0408B50A040834
:1000A000B50A0408B50A0408B50A0408B50A040824
:1000B000B50A0408B50A0408B50A0408B50A040814
:1000C000B50A0408B50A0408B50A0408B50A040804
:1000D000B50A0408B50A0408B50A0408B50A0408F4
:1000E000B50A0408B50A0408B50A0408B50A0408E4
:1000F000B50A0408B50A0408B50A0408B50A0408D4
:1001000000000000B50A0408B50A0408B50A04088E
:100110000000000000000000B50A0408B50A040849
:10012000B50A0408B50A0408B50A0408B50A0408A3
:10013000B50A0408B50A0408B50A0408B50A040893
:10014000B50A0408B50A0408B50A0408B50A040883
:10015000B50A0408B50A0408B50A0408B50A040873
:10016000B50A0408B50A04080000000000000000F9
:10017000000000000000000000000000000000007F
:10018000B50A0408B50A04080000000000000000D9
:10019000B50A0408B50A04080000000000000000C9
:1001A000000000000000000000000000000000004F
:1001B000B50A04080000000000000000B50A0408A9
:0401C000B50A040870
:1001C40010B5054C237833B9044B13B10448AFF38D
:1001D40000800123237010BD0C00002000000000EB
:1001E400102C040808B5034B1BB103490348AFF3B3
:1001F400008008BD0000000010000020102C04083E
:1002040053B94AB9002908BF00281CBF4FF0FF3179
:100214004FF0FF3000F074B9ADF1080C6DE904CE75
:1002240000F006F8DDF804E0DDE9022304B07047CD
:100234002DE9F047089D04468E46002B4DD18A4295
:10024400944669D9B2FA82F252B101FA02F3C2F1C8
:10025400200120FA01F10CFA02FC41EA030E944059
:100264004FEA1C48210CBEFBF8F61FFA8CF708FB7A
:1002740016E341EA034306FB07F199420AD91CEB52
:10028400030306F1FF3080F01F81994240F21C8184
:10029400023E63445B1AA4B2B3FBF8F008FB1033CC
:1002A40044EA034400FB07F7A7420AD91CEB040401
:1002B40000F1FF3380F00A81A74240F207816444D1
:1002C400023840EA0640E41B00261DB1D440002356
:1002D400C5E900433146BDE8F0878B4209D9002DBA
:1002E40000F0EF800026C5E9000130463146BDE844
:1002F400F087B3FA83F6002E4AD18B4202D38242AE
:1003040000F2F980841A61EB030301209E46002D5C
:10031400E0D0C5E9004EDDE702B9FFDEB2FA82F2B1
:10032400002A40F09280A1EB0C014FEA1C471FFA0F
:100334008CFE0126200CB1FBF7F307FB131140EAF6
:1003440001410EFB03F0884208D91CEB010103F1C3
:10035400FF3802D2884200F2CB804346091AA4B285
:10036400B1FBF7F007FB101144EA01440EFB00FE59
:10037400A64508D91CEB040400F1FF3102D2A645BE
:1003840000F2BB800846A4EB0E0440EA03409CE75D
:10039400C6F12007B34022FA07FC4CEA030C20FA0A
:1003A40007F401FA06F31C43F9404FEA1C4900FA2A
:1003B40006F3B1FBF9F8200C1FFA8CFE09FB1811A7
:1003C40040EA014108FB0EF0884202FA06F20BD91A
:1003D4001CEB010108F1FF3A80F08880884240F26A
:1003E4008580A8F102086144091AA4B2B1FBF9F0AE
:1003F40009FB101144EA014100FB0EFE8E4508D9A9
:100404001CEB010100F1FF346CD28E456AD902382D
:10041400614440EA0840A0FB0294A1EB0E01A14212
:10042400C846A64656D353D05DB1B3EB080261EB80
:100434000E0101FA07F722FA06F3F1401F43C5E95A
:10044400007100263146BDE8F087C2F12003D84090
:100454000CFA02FC21FA03F3914001434FEA1C47D2
:100464001FFA8CFEB3FBF7F007FB10360B0C43EAC4
:10047400064300FB0EF69E4204FA02F408D91CEB74
:10048400030300F1FF382FD29E422DD90238634472
:100494009B1B89B2B3FBF7F607FB163341EA034112
:1004A40006FB0EF38B4208D91CEB010106F1FF3861
:1004B40016D28B4214D9023E6144C91A46EA004658
:1004C40038E72E46284605E70646E3E61846F8E6EA
:1004D4004B45A9D2B9EB020864EB0C0E0138A3E733
:1004E4004646EAE7204694E74046D1E7D0467BE714
:1004F400023B614432E7304609E76444023842E78C
:10050400704700BF80B500AF00F0D4FA00F010F8D7
:1005140000F0D4F800F078F800F0A0F801224FF4CD
:100524008041024800F0D6FDFEE700BF000402400F
:1005340080B594B000AF07F11C03342200211846A3
:1005440002F05CFB07F1080300221A605A609A600B
:10055400DA601A6100237B60294B1B6C284A43F044
:1005640080531364264B1B6C03F080537B607B68C1
:1005740000233B60234B1B68224A43F4404313602F
:10058400204B1B6803F440433B603B680123FB6141
:100594004FF4A0233B6202237B634FF48003BB63CD
:1005A4000823FB634FF4C0733B6404237B64082378
:1005B400BB640223FB6407F11C03184601F0DAFA5A
:1005C4000346002B01D000F027F90F23BB60022360
:1005D400FB6000233B614FF480537B610023BB61CC
:1005E40007F108030321184600F0D6FE0346002B4A
:1005F40001D000F011F900BF5037BD4680BD00BFE7
:10060400003802400070004080B500AF114B124A20
:100614001A60104B4FF4E1325A600E4B00229A607C
:100624000C4B0022DA600B4B00221A61094B0C229E
:100634005A61084B00229A61064B0022DA61054890
:1006440001F01CFD0346002B01D000F0E5F800BFCB
:1006540080BD00BF280000200048004080B500AFE6
:10066400154B4FF0A0421A60134B06225A60124BEE
:100674000222DA60104B00221A610F4B02229A61A7
:100684000D4B0122DA610C4B00221A620A4B002244
:100694005A62094B01229A62074B0122DA62064B25
:1006A40000221A63044800F02EFD0346002B01D0FB
:1006B40000F0B2F800BF80BD6C00002080B58CB0A3
:1006C40000AF07F11C0300221A605A609A60DA60D6
:1006D4001A610023BB614C4B1B6B4B4A43F0040370
:1006E4001363494B1B6B03F00403BB61BB69002319
:1006F4007B61454B1B6B444A43F080031363424BBD
:100704001B6B03F080037B617B6900233B613E4BE1
:100714001B6B3D4A43F0020313633B4B1B6B03F01B
:1007240002033B613B690023FB60374B1B6B364A7A
:1007340043F008031363344B1B6B03F00803FB60A3
:10074400FB680023BB60304B1B6B2F4A43F0400314
:1007540013632D4B1B6B03F04003BB60BB6800238A
:100764007B60294B1B6B284A43F001031363264B20
:100774001B6B03F001037B607B68002244F2810160
:10078400224800F0A7FC00224021214800F0A2FCEE
:100794004FF40053FB614FF488133B6200237B62E8
:1007A40007F11C0319461B4800F000FB44F28103C7
:1007B400FB6101233B6200237B620023BB6207F1E0
:1007C4001C031946114800F0F1FA4023FB61012390
:1007D4003B6200237B620023BB6207F11C031946C2
:1007E4000B4800F0E3FA8023FB6100233B62002303
:1007F4007B6207F11C031946054800F0D7FA00BFD5
:100804003037BD4680BD00BF0038024000040240BE
:10081400001802400008024080B400AF72B600BF66
:10082400FEE7000080B483B000AF00237B60104B70
:100834005B6C0F4A43F4804353640D4B5B6C03F4CD
:1008440080437B607B6800233B60094B1B6C084A38
:1008540043F080531364064B1B6C03F080533B60DE
:100864003B6800BF0C37BD465DF8047B704700BF92
:100874000038024080B58AB000AF786007F11403F5
:1008840000221A605A609A60DA601A617B681B68F9
:10089400194A93422CD100233B61184B1B6C174A15
:1008A40043F480231364154B1B6C03F480233B61D6
:1008B4003B690023FB60114B1B6B104A43F0080398
:1008C40013630E4B1B6B03F00803FB60FB684FF4D0
:1008D40040737B610223BB610023FB6103233B6202
:1008E40007237B6207F114031946054800F05EFAFA
:1008F40000BF2837BD4680BD004800400038024094
:10090400000C024080B598B000AF786007F14C034A
:1009140000221A605A609A60DA601A6107F11003C3
:100924003C220021184602F069F97B681B68B3F188
:10093400A04F4DD120233B610023BB6307F110037B
:10094400184600F049FF0346002B01D0FFF764FF6F
:100954000023FB60204B1B6B1F4A43F0010313630E
:100964001D4B1B6B03F00103FB60FB684FF4E85362
:10097400FB6402233B6500237B650323BB650A23D9
:10098400FB6507F14C031946144800F00FFA4FF4C5
:100994000073FB6400233B6500237B6507F14C0374
:1009A40019460E4800F002FA0B4B5B6B0A4A43F0FF
:1009B400800353630023BB60074B5B6C064A43F41C
:1009C40080435364044B5B6C03F48043BB60BB689B
:1009D40000BF6037BD4680BD0038024000000240C1
:1009E40080B400AFFEE780B400AFFEE780B400AF90
:1009F400FEE780B400AFFEE780B400AFFEE780B44A
:100A040000AF00BFBD465DF8047B704780B400AF03
:100A140000BFBD465DF8047B704780B400AF00BFE3
:100A2400BD465DF8047B704780B500AF00F094F8D4
:100A340000BF80BD80B400AF074BD3F88830064AAE
:100A440043F47003C2F88830034B044A9A6000BF31
:100A5400BD465DF8047B704700ED00E0000004082B
:100A6400DFF834D00D480E490E4A002302E0D45872
:100A7400C4500433C4188C42F9D30B4A0B4C0023E2
:100A840001E013600432A242FBD3FFF7D3FF02F06C
:100A940091F8FFF737FD70470000042000000020A4
:100AA4000C000020502C04080C00002078040020C6
:100AB400FEE7000080B500AF0E4B1B680D4A43F4FF
:100AC400007313600B4B1B680A4A43F48063136082
:100AD400084B1B68074A43F480731360032000F03B
:100AE40031F9002000F008F8FFF79CFE00231846B7
:100AF40080BD00BF003C024080B582B000AF78608A
:100B0400124B1A68124B1B7819464FF47A73B3FBD5
:100B1400F1F3B2FBF3F3184600F03BF90346002B64
:100B240001D001230EE07B680F2B0AD800227968DC
:100B34004FF0FF3000F011F9064A7B681360002380
:100B440000E0012318460837BD4680BD00000020A0
:100B5400080000200400002080B400AF064B1B787E
:100B64001A46064B1B681344044A136000BFBD4673
:100B74005DF8047B704700BF080000207404002067
:100B840080B400AF034B1B681846BD465DF8047B78
:100B9400704700BF7404002080B584B000AF786053
:100BA400FFF7EEFFB8607B68FB60FB68B3F1FF3FC3
:100BB40005D00A4B1B781A46FB681344FB6000BF40
:100BC400FFF7DEFF0246BB68D31AFA689A42F7D8E9
:100BD40000BF00BF1037BD4680BD00BF0800002025
:100BE40080B485B000AF78607B6803F00703FB60D6
:100BF4000C4BDB68BB60BA684FF6FF031340BB6065
:100C0400FB681A02BB68134343F0BF6343F4003329
:100C1400BB60044ABB68D36000BF1437BD465DF8AF
:100C2400047B704700ED00E080B400AF044BDB6848
:100C34001B0A03F007031846BD465DF8047B7047A2
:100C440000ED00E080B483B000AF03463960FB716F
:100C540097F90730002B0ADB3B68DAB20C4997F9A5
:100C640007301201D2B20B4483F800230AE03B6838
:100C7400DAB20849FB7903F00F03043B1201D2B244
:100C84000B441A7600BF0C37BD465DF8047B7047F1
:100C940000E100E000ED00E080B489B000AFF8604E
:100CA400B9607A60FB6803F00703FB61FB69C3F179
:100CB4000703042B28BF0423BB61FB690433062B01
:100CC40002D9FB69033B00E000237B614FF0FF3254
:100CD400BB6902FA03F3DA43BB681A407B699A40A2
:100CE4004FF0FF317B6901FA03F3D9437B680B4072
:100CF400134318462437BD465DF8047B7047000053
:100D040080B582B000AF78607B68013BB3F1807F2F
:100D140001D301230FE00A4A7B68013B53600F2192
:100D24004FF0FF30FFF78EFF054B00229A60044B13
:100D340007221A60002318460837BD4680BD00BF4D
:100D440010E000E080B582B000AF78607868FFF70B
:100D540047FF00BF0837BD4680BD80B586B000AFF1
:100D64000346B9607A60FB7300237B61FFF75CFF85
:100D740078617A68B9687869FFF78EFF024697F957
:100D84000F3011461846FFF75DFF00BF1837BD4608
:100D940080BD80B582B000AF78607868FFF7B0FF9F
:100DA400034618460837BD4680BD000080B489B0AC
:100DB40000AF7860396000237B6100233B6100232E
:100DC400BB610023FB6165E10122FB6902FA03F3C5
:100DD4007B613B681B687A6913403B613A697B69B4
:100DE4009A4240F054813B685B6803F00303012B93
:100DF40005D03B685B6803F00303022B30D17B68AA
:100E04009B68BB61FB695B00032202FA03F3DB43CB
:100E1400BA691340BB613B68DA68FB695B0002FA9C
:100E240003F3BA691343BB617B68BA699A607B6850
:100E34005B68BB610122FB6902FA03F3DB43BA6915
:100E44001340BB613B685B681B0903F00102FB694B
:100E540002FA03F3BA691343BB617B68BA695A6047
:100E64003B685B6803F00303032B17D07B68DB68E4
:100E7400BB61FB695B00032202FA03F3DB43BA693B
:100E84001340BB613B689A68FB695B0002FA03F399
:100E9400BA691343BB617B68BA69DA603B685B6813
:100EA40003F00303022B23D1FB69DA087B680832C1
:100EB40053F82230BB61FB6903F007039B000F2248
:100EC40002FA03F3DB43BA691340BB613B681A6956
:100ED400FB6903F007039B0002FA03F3BA691343A7
:100EE400BB61FB69DA087B680832B96943F82210F0
:100EF4007B681B68BB61FB695B00032202FA03F396
:100F0400DB43BA691340BB613B685B6803F00302CF
:100F1400FB695B0002FA03F3BA691343BB617B68A4
:100F2400BA691A603B685B6803F44033002B00F035
:100F3400AE800023FB605D4B5B6C5C4A43F48043F2
:100F440053645A4B5B6C03F48043FB60FB68584A60
:100F5400FB699B08023352F82330BB61FB6903F041
:100F640003039B000F2202FA03F3DB43BA69134025
:100F7400BB617B684F4A934225D07B684E4A9342BB
:100F84001FD07B684D4A934219D07B684C4A9342E8
:100F940013D07B684B4A93420DD07B684A4A9342F4
:100FA40007D07B68494A934201D106230CE007230A
:100FB4000AE0052308E0042306E0032304E00223F7
:100FC40002E0012300E00023FA6902F00302920028
:100FD4009340BA691343BB613549FB699B080233EB
:100FE400BA6941F823203A4B1B68BB613B69DB4378
:100FF400BA691340BB613B685B6803F48033002B20
:1010040003D0BA693B691343BB61314ABB691360BE
:101014002F4B5B68BB613B69DB43BA691340BB611F
:101024003B685B6803F40033002B03D0BA693B6967
:101034001343BB61264ABB695360254B9B68BB6164
:101044003B69DB43BA691340BB613B685B6803F4EB
:101054008013002B03D0BA693B691343BB611C4A5C
:10106400BB6993601A4BDB68BB613B69DB43BA69BC
:101074001340BB613B685B6803F40013002B03D08F
:10108400BA693B691343BB61114ABB69D360FB690D
:101094000133FB61FB690F2B7FF696AE00BF00BFE7
:1010A4002437BD465DF8047B704700BF003802401A
:1010B40000380140000002400004024000080240E1
:1010C400000C0240001002400014024000180240CC
:1010D400003C014080B483B000AF78600B467B8055
:1010E40013467B707B78002B03D07A887B689A61E7
:1010F40003E07B881A047B689A6100BF0C37BD4605
:101104005DF8047B7047F0B58FB00AAF78607B68F8
:10111400002B01D1012316E17B681B68BB607B684F
:1011240093F8BD33DBB2002B06D17B68002283F831
:10113400BC237868FFF7E6FB7B68032283F8BD23B2
:10114400BB68DB6B03F48073002B02D17B68002245
:101154001A617B681B68184601F0B3FA7B681B6848
:101164003B607E686D4606F110040FCC0FC50FCCB2
:101174000FC594E8030085E80300331D0ECB3868DF
:1011840001F03EFA0346002B05D07B68022283F867
:10119400BD230123D7E07B681B680021184601F0BA
:1011A400A1FA0023FB734AE0FA7B79681346DB005B
:1011B4009B1A9B000B443D3301221A70FA7B796819
:1011C4001346DB009B1A9B000B443C33FA7B1A70DA
:1011D400FA7BFB7B98B279681346DB009B1A9B0071
:1011E4000B44423302461A80FA7B79681346DB00CB
:1011F4009B1A9B000B443F3300221A70FA7B7968D8
:101204001346DB009B1A9B000B44443300221A60F4
:10121400FA7B79681346DB009B1A9B000B44483326
:1012240000221A60FA7B79681346DB009B1A9B0044
:101234000B44503300221A60FB7B0133FB73FA7BAF
:101244007B685B689A42AFD30023FB7344E0FA7B6C
:1012540079681346DB009B1A9B000B4403F2FD13D1
:1012640000221A70FA7B79681346DB009B1A9B00F4
:101274000B4403F5FE73FA7B1A70FA7B7968134604
:10128400DB009B1A9B000B4403F2FF1300221A702D
:10129400FA7B79681346DB009B1A9B000B4403F529
:1012A400017300221A60FA7B79681346DB009B1AEB
:1012B4009B000B4403F5027300221A60FA7B7968E1
:1012C4001346DB009B1A9B000B4403F504730022B6
:1012D4001A60FB7B0133FB73FA7B7B685B689A4281
:1012E400B5D37B681B683B607E686D4606F11004CD
:1012F4000FCC0FC50FCC0FC594E8030085E803009D
:10130400331D0ECB386801F039FA0346002B05D0A3
:101314007B68022283F8BD23012314E07B6800224A
:1013240083F838207B68012283F8BD237B685B6ADD
:10133400012B02D1786800F00AF87B681B68184614
:1013440001F0D7FB002318461437BD46F0BD80B426
:1013540085B000AF78607B681B68FB607B68012206
:10136400C3F8FC237B68002283F8F423FB689B69A1
:1013740043F00062FB689A61FB685B6D43F0805345
:1013840043F00303FA685365002318461437BD4637
:101394005DF8047B7047000080B584B000AF7860CE
:1013A40039607B68002B01D10123CCE0684B1B68BA
:1013B40003F007033A689A420CD9654B3A68D2B2F3
:1013C4001A70634B1B6803F007033A689A4201D012
:1013D4000123B8E07B681B6803F00203002B20D0D4
:1013E4007B681B6803F00403002B05D0594B9B68F2
:1013F400584A43F4E05393607B681B6803F0080386
:10140400002B05D0534B9B68524A43F460439360CE
:10141400504B9B6823F0F0027B689B684D49134353
:101424008B607B681B6803F00103002B44D07B684E
:101434005B68012B07D1474B1B6803F40033002B77
:1014440019D101237FE07B685B68022B03D07B68A2
:101454005B68032B07D13F4B1B6803F00073002B21
:1014640009D101236FE03B4B1B6803F00203002BFF
:1014740001D1012367E0374B9B6823F003027B68AB
:101484005B68344913438B60FFF77AFBF8600AE02A
:10149400FFF776FB0246FB68D31A41F28832934287
:1014A40001D903234FE02B4B9B6803F00C027B68AC
:1014B4005B689B009A42EBD1254B1B6803F0070342
:1014C4003A689A420CD2224B3A68D2B21A70204B34
:1014D4001B6803F007033A689A4201D0012332E003
:1014E4007B681B6803F00403002B08D0194B9B682E
:1014F40023F4E0527B68DB68164913438B607B68F6
:101504001B6803F00803002B09D0124B9B6823F4DB
:1015140060427B681B69DB000E4913438B6000F05B
:1015240021F802460B4B9B681B0903F00F030A4981
:10153400CB5C22FA03F3094A1360094B1B68184673
:10154400FFF7DAFA002318461037BD4680BD00BF06
:10155400003C024000380240282C0408000000200F
:10156400040000202DE9B04F94B000AF00237B6449
:101574000023FB6400233B640023BB64794B9B681A
:1015840003F00C03082B0DD0082B00F2E180002B94
:1015940002D0042B03D0DBE0734BBB64DBE0734B62
:1015A400BB64D8E06F4B5B6803F03F037B646D4B17
:1015B4005B6803F48003002B63D06A4B5B689B0970
:1015C4000022BB63FA63BB6BC3F308033B630023D2
:1015D4007B63D7E90C4522462B464FF000004FF0C1
:1015E4000001590141EAD261500102460B462146ED
:1015F400511A3961294663EB01037B614FF0000204
:101604004FF00003D7E904AB59468B01514643EA36
:10161400916351468A015146B2EB0108594663EB86
:1016240001094FF000024FF000034FEAC90343EAF7
:1016340058734FEAC80290469946234618EB0303B1
:10164400BB602B4649EB0303FB604FF000024FF0F5
:101654000003D7E9024529464B02214643EAD15308
:1016640021464A02104619467B6C0022BB62FA628C
:10167400D7E90A23FEF7C4FD02460B461346FB6472
:1016840058E0384B5B689B09002218461146C0F3AA
:1016940008033B6200237B62D7E9088942464B4634
:1016A4004FF000004FF00001590141EAD2615001AE
:1016B40002460B464146B2EB010A494663EB010B75
:1016C4004FF000024FF000034FEA8B1343EA9A6392
:1016D4004FEA8A12B2EB0A0463EB0B054FF00002E7
:1016E4004FF00003EB0043EA5473E20014461D4636
:1016F4004346E3183B604B4645EB03037B604FF0E6
:1017040000024FF00003D7E9004529468B02214629
:1017140043EA915321468A02104619467B6C002203
:10172400BB61FA61D7E90623FEF76AFD02460B4660
:101734001346FB640B4B5B681B0C03F00303013380
:101744005B003B64FA6C3B6CB2FBF3F3BB6402E0FA
:10175400054BBB6400BFBB6C18465037BD46BDE8A3
:10176400B08F00BF003802400024F40000127A0059
:1017740080B400AF034B1B681846BD465DF8047B7C
:10178400704700BF0000002080B500AFFFF7F0FFF6
:101794000246054B9B689B0A03F007030349CB5C95
:1017A40022FA03F3184680BD00380240382C04089E
:1017B40080B500AFFFF7DCFF0246054B9B685B0B6F
:1017C40003F007030349CB5C22FA03F3184680BDF8
:1017D40000380240382C040880B586B000AF786029
:1017E40000233B610023FB6000237B617B681B6853
:1017F40003F00103002B10D0874BD3F88C3023F077
:10180400C0627B685B6984491343C1F88C307B6890
:101814005B69002B01D101237B617B681B6803F0AA
:101824000203002B10D07C4BD3F88C3023F0C05231
:101834007B689B6978491343C1F88C307B689B694A
:10184400002B01D101237B617B681B6803F0080333
:10185400002B00F083800023BB606F4B1B6C6E4A2F
:1018640043F0805313646C4B1B6C03F08053BB60D8
:10187400BB686A4B1B68694A43F480731360FFF7C3
:101884007FF9386108E0FFF77BF902463B69D31A18
:10189400022B01D9032362E1604B1B6803F48073BC
:1018A400002BF0D05C4B1B6F03F44073FB60FB68B0
:1018B400002B2FD07B68DB6903F44073FA689A42EB
:1018C40028D0554B1B6F23F44073FB60544B01220B
:1018D4001A60534B00221A604F4AFB6813674E4B41
:1018E4001B6F03F00103012B14D1FFF749F9386191
:1018F4000AE0FFF745F902463B69D31A41F2883200
:10190400934201D903232AE1434B1B6F03F00203E3
:10191400002BEED07B68DB6903F44073B3F5407FA2
:101924000DD13D4B9B6823F4F8127B68DB6923F0EF
:10193400704323F44073384913438B6005E0364BFE
:101944009B68354A23F4F8139360334B1A6F7B6812
:10195400DB69C3F30B03304913430B677B681B68D4
:1019640003F00403002B04D07B6893F838202D4B3C
:101974001A607B681B6803F01003002B0AD0264B07
:10198400D3F8943023F440027B685B6A2249134302
:10199400C1F894307B681B6803F02003002B11D03E
:1019A4001D4BD3F8943023F000627B689B6A1A497C
:1019B4001343C1F894307B689B6AB3F1006F01D183
:1019C40001237B617B681B6803F04003002B0AD072
:1019D400114BD3F8943023F080527B681B6A0E4974
:1019E4001343C1F894307B69012B04D07B681B68D6
:1019F400802B40F091800C4B00221A60FFF7C0F856
:101A0400386113E0FFF7BCF802463B69D31A022B96
:101A14000CD90323A3E000BF00380240007000404B
:101A2400400E4742E0114742680047424E4B1B6854
:101A340003F00063002BE5D14C4A7B685B6B1360B9
:101A44007B681B6803F00103002B03D07B685B6990
:101A5400002B23D07B681B6803F00203002B03D008
:101A64007B689B69002B19D07B681B6803F02003FB
:101A7400002B04D07B689B6AB3F1006F0ED07B68A7
:101A84001B6803F04003002B19D07B681B6A002BF2
:101A940015D17B689B6AB3F1006F10D17B685A68DB
:101AA4007B689B689B011A437B68DB681B061A43AF
:101AB4007B681B691B072C491343C1F884307B687E
:101AC4001B6803F08003002B10D07B685A687B6886
:101AD4009B689B011A437B68DB681B061A437B687F
:101AE4001B691B0720491343C1F88430204B012292
:101AF4001A60FFF745F8386108E0FFF741F802463D
:101B04003B69D31A022B01D9032328E0164B1B6827
:101B140003F00063002BF0D07B681B6803F4807330
:101B2400002B0AD0104BD3F88C3023F000427B6892
:101B3400DB6A0D491343C1F88C307B681B6803F4DE
:101B44000073002B0AD0084BD3F88C3023F40042E6
:101B54007B681B6B04491343C1F88C30002318467F
:101B64001837BD4680BD00BF00380240D810474238
:101B74006800474280B586B000AF78607B68002B70
:101B840001D1012373E27B681B6803F00103002B7E
:101B940075D0884B9B6803F00C03042B0CD0854B49
:101BA4009B6803F00C03082B12D1824B5B6803F48F
:101BB4008003B3F5800F0BD17E4B1B6803F4003315
:101BC400002B5BD07B685B68002B57D101234EE26E
:101BD4007B685B68B3F5803F06D1764B1B68754A1A
:101BE40043F4803313601DE07B685B68B3F5A02F7A
:101BF4000CD1704B1B686F4A43F4802313606D4B08
:101C04001B686C4A43F4803313600BE0694B1B6818
:101C1400684A23F480331360664B1B68654A23F4D7
:101C2400802313607B685B68002B13D0FEF7A8FF4A
:101C3400386108E0FEF7A4FF02463B69D31A642B1F
:101C440001D9032313E25B4B1B6803F40033002B1D
:101C5400F0D014E0FEF794FF386108E0FEF790FF3F
:101C640002463B69D31A642B01D90323FFE1514B8C
:101C74001B6803F40033002BF0D100E000BF7B6845
:101C84001B6803F00203002B63D04A4B9B6803F0EC
:101C94000C03002B0BD0474B9B6803F00C03082B61
:101CA4001CD1444B5B6803F48003002B16D1414BD9
:101CB4001B6803F00203002B05D07B68DB68012B53
:101CC40001D00123D3E13B4B1B6823F0F8027B686E
:101CD4001B69DB00374913430B603AE07B68DB6820
:101CE400002B20D0344B01221A60FEF749FF3861E3
:101CF40008E0FEF745FF02463B69D31A022B01D9DF
:101D04000323B4E12B4B1B6803F00203002BF0D038
:101D1400284B1B6823F0F8027B681B69DB0025490C
:101D240013430B6015E0244B00221A60FEF728FFD2
:101D3400386108E0FEF724FF02463B69D31A022B00
:101D440001D9032393E11B4B1B6803F00203002B0F
:101D5400F0D17B681B6803F00803002B36D07B6846
:101D64005B69002B16D0154B01221A60FEF708FFA1
:101D7400386108E0FEF704FF02463B69D31A022BE0
:101D840001D9032373E10B4B5B6F03F00203002BB8
:101D9400F0D01BE0094B00221A60FEF7F1FE386117
:101DA4000EE0FEF7EDFE02463B69D31A022B07D97B
:101DB40003235CE10038024000004742800E4742A2
:101DC4008A4B5B6F03F00203002BEAD17B681B682C
:101DD40003F00403002B00F097800023FB75834B72
:101DE4001B6C03F08053002B0FD10023BB607F4B8F
:101DF4001B6C7E4A43F0805313647C4B1B6C03F0D2
:101E04008053BB60BB680123FB75794B1B6803F4EB
:101E14008073002B18D1764B1B68754A43F480738A
:101E24001360FEF7ADFE386108E0FEF7A9FE024636
:101E34003B69D31A022B01D9032318E16C4B1B68AD
:101E440003F48073002BF0D07B689B68012B06D1D0
:101E5400664B1B6F654A43F0010313671CE07B6804
:101E64009B68052B0CD1614B1B6F604A43F0040344
:101E740013675E4B1B6F5D4A43F0010313670BE06E
:101E84005A4B1B6F594A23F001031367574B1B6FBF
:101E9400564A23F0040313677B689B68002B15D014
:101EA400FEF76EFE38610AE0FEF76AFE02463B6901
:101EB400D31A41F28832934201D90323D7E04B4B22
:101EC4001B6F03F00203002BEED014E0FEF758FE64
:101ED40038610AE0FEF754FE02463B69D31A41F228
:101EE4008832934201D90323C1E0404B1B6F03F0B6
:101EF4000203002BEED1FB7D012B05D13B4B1B6C68
:101F04003A4A23F0805313647B689B69002B00F0EA
:101F1400AD80364B9B6803F00C03082B60D07B68C4
:101F24009B69022B45D1334B00221A60FEF728FE31
:101F3400386108E0FEF724FE02463B69D31A022BFF
:101F440001D9032393E0294B1B6803F00073002B92
:101F5400F0D17B68DA697B681B6A1A437B685B6A29
:101F64009B011A437B689B6A5B08013B1B041A4371
:101F74007B68DB6A1B061A437B681B6B1B071B49C8
:101F840013434B601B4B01221A60FEF7F9FD3861C5
:101F940008E0FEF7F5FD02463B69D31A022B01D98E
:101FA400032364E0114B1B6803F00073002BF0D093
:101FB4005CE0104B00221A60FEF7E2FD386108E095
:101FC400FEF7DEFD02463B69D31A022B01D9032337
:101FD4004DE0064B1B6803F00073002BF0D145E085
:101FE4007B689B69012B07D1012340E00038024044
:101FF40000700040600047421F4B5B68FB607B68D9
:102004009B69012B30D0FB6803F480027B68DB6999
:102014009A4229D1FB6803F03F027B681B6A9A420B
:1020240022D1FA6847F6C07313407A68526A920163
:10203400934219D1FB6803F440327B689B6A5B08C6
:10204400013B1B049A420FD1FB6803F070627B686A
:10205400DB6A1B069A4207D1FB6803F0E0427B6807
:102064001B6B1B079A4201D0012300E00023184692
:102074001837BD4680BD00BF0038024080B582B02D
:1020840000AF78607B68002B01D101233FE07B68BF
:1020940093F83D30DBB2002B06D17B68002283F835
:1020A4003C207868FEF7E6FB7B68242283F83D2019
:1020B4007B681B68DA687B681B6822F40052DA606C
:1020C400786800F029F87B681B681A697B681B68CC
:1020D40022F490421A617B681B685A697B681B680A
:1020E40022F02A025A617B681B68DA687B681B68E5
:1020F40042F40052DA607B6800221A647B68202272
:1021040083F83D207B68202283F83E200023184674
:102114000837BD4680BD00002DE9B04FC0B000AF08
:10212400C7F8F400D7F8F4301B681B6923F4405057
:10213400D7F8F430D968D7F8F4301A6840EA0103C4
:102144001361D7F8F4309A68D7F8F4301B691A434E
:10215400D7F8F4305B691A43D7F8F430DB691343DA
:10216400C7F8F830D7F8F4301B68DB6823F416415D
:1021740021F00C01D7F8F4301A68D7F8F8300B4383
:10218400D360D7F8F4301B685B6923F44070D7F848
:10219400F4309969D7F8F4301A6840EA01035361BE
:1021A400D7F8F4301A688F4B9A4205D0D7F8F43038
:1021B4001A688D4B9A4204D1FFF7FAFAC7F8FC006B
:1021C40003E0FFF7E1FAC7F8FC00D7F8F430DB6965
:1021D400B3F5004F40F00C81D7F8FC300022C7F86B
:1021E400E830C7F8EC20D7E93A4522462B46911847
:1021F400B9655B41FB65D7E91623214612EB01085B
:10220400294643EB01094FF000024FF000034FEA67
:10221400C90343EA58734FEAC802904699462346D5
:1022240018EB0303C7F8E0302B4649EB0303C7F868
:10223400E430D7F8F4305B680022C7F8D830C7F828
:10224400DC20D7E936120B46DB183B65134642EB1C
:1022540003037B65D7E91423D7E93801FDF7D0FFE1
:1022640002460B46614BA3FB02235B091C01D7F812
:10227400FC300022C7F8D030C7F8D420D7E934891D
:1022840042464B469118B9645B41FB64D7E912237B
:10229400414612EB010A494643EB010B4FF00002A1
:1022A4004FF000034FEACB0343EA5A734FEACA02E2
:1022B40092469B4643461AEB0303C7F8C8304B4685
:1022C4004BEB0303C7F8CC30D7F8F4305B6800223B
:1022D400C7F8C030C7F8C420D7E930120B46DB1862
:1022E4003B64134642EB03037B64D7E91023D7E92D
:1022F4003201FDF785FF02460B4611463B4BA3FB1B
:1023040001235B09642202FB03F3CB1ADB0003F114
:102314003202364BA3FB02235B095B0003F4F87320
:102324001C44D7F8FC300022C7F8B830C7F8BC20EA
:10233400D7E92E8942464B469118B9635B41FB634A
:10234400D7E90E2341465118396349464B417B6313
:102354004FF000024FF00003D7E90CAB5946CB0015
:10236400514643EA51735146CA0010461946034682
:1023740042469B18C7F8B0304B460A4642EB03036B
:10238400C7F8B430D7F8F4305B680022C7F8A83037
:10239400C7F8AC20D7E92A120B46DB18BB621346F8
:1023A40042EB0303FB62D7E90A23D7E92C01FDF7CB
:1023B40027FF02460B460D4BA3FB02135B09642166
:1023C40001FB03F3D31ADB003233084AA2FB0323D5
:1023D4005B0903F00702D7F8F4301B6822449A60C3
:1023E40005E100BF00100140001401401F85EB51BE
:1023F400D7F8FC300022C7F8A030C7F8A420D7E9EA
:10240400288942464B46911839625B417B62D7E981
:10241400082341465418494643EB01054FF0000296
:102424004FF00003EB0043EA5473E20014461D46E8
:102434004346E318C7F898304B4645EB0303C7F807
:102444009C30D7F8F4305B680022C7F89030C7F8A6
:1024540094204FF000024FF00003D7E924452946A9
:102464008B00214643EA917321468A00D7E926016D
:10247400FDF7C6FE02460B46604BA3FB02235B0935
:102484001C01D7F8FC300022C7F88830C7F88C202C
:10249400D7E9228942464B469118B9615B41FB61F9
:1024A400D7E9062341465118396149464B417B61BE
:1024B4004FF000024FF00003D7E904AB5946CB00BC
:1024C400514643EA51735146CA0010461946034621
:1024D40042469B18C7F880304B460A4642EB03033A
:1024E400C7F88430D7F8F4305B680022BB67FA671A
:1024F4004FF000024FF00003D7E91E8949468B00D4
:10250400414643EA917341468A00D7E92001FDF729
:1025140077FE02460B46394BA3FB02135B09642189
:1025240001FB03F3D31A1B013233344AA2FB032306
:102534005B0903F0F0031C44D7F8FC3000223B672E
:102544007A67D7E91C8942464B469118B9605B41CA
:10255400FB60D7E9022341465118396049464B4193
:102564007B604FF000024FF00003D7E900AB5946FF
:10257400CB00514643EA51735146CA0010461946EE
:10258400034642469B18BB664B460A4642EB03038E
:10259400FB66D7F8F4305B6800223B667A664FF03E
:1025A40000024FF00003D7E9188949468B004146E1
:1025B40043EA917341468A00D7E91A01FDF720FEE8
:1025C40002460B460D4BA3FB02135B09642101FB7E
:1025D40003F3D31A1B013233084AA2FB03235B091A
:1025E40003F00F02D7F8F4301B6822449A6000BF4E
:1025F40007F58077BD46BDE8B08F00BF1F85EB515E
:1026040084B080B584B000AF786007F11C0080E826
:102614000E003B6B012B22D17B689B6B23F4803231
:102624007B689A637B68DB6823F4840323F04003AC
:102634007A68D3607B68DB6823F440127B68DA60D5
:10264400FB6C012B05D17B68DB6843F480127B684B
:10265400DA60786800F07CFA0346FB731AE07B6862
:10266400DB6843F040027B68DA60786800F070FA57
:102674000346FB733B6C002B06D17B689B6B43F4D6
:1026840080327B689A6305E07B689B6B23F480321D
:102694007B689A63BB6A012B0BD17B689B6843F010
:1026A40006027B689A607B689B6843F020027B6823
:1026B4009A60FB7B18461037BD46BDE8804004B0E5
:1026C400704780B483B000AF78607B689B6823F068
:1026D40001027B689A60002318460C37BD465DF8FA
:1026E400047B704780B584B000AF78600B46FB7004
:1026F4000023FB607B68DB6823F0C0427B68DA6000
:10270400FB78012B15D17B68DB6843F000527B68B2
:10271400DA600120FEF740FAFB680133FB60786859
:1027240000F008FA0346012B1ED0FB68312BF0D9C8
:102734001AE0FB78002B15D17B68DB6843F08042FC
:102744007B68DA600120FEF727FAFB680133FB603F
:10275400786800F0EFF90346002B05D0FB68312BB5
:10276400F0D901E0012305E0FB68322B01D10123FC
:1027740000E0002318461037BD4680BD84B080B504
:1027840086B000AF786007F1240080E80E000023D3
:10279400FB757B68FB6000233B6109E07A683B6959
:1027A40040339B00134400225A603B6901333B6170
:1027B4003B690E2BF2D9FB6C002B1CD1FB6803F593
:1027C40000635B68FA6802F5006243F00203536039
:1027D4007B689B6B23F400127B689A637B681B689D
:1027E40043F040027B681A607B681B6843F08002F8
:1027F4007B681A6005E07B689B6B43F400127B687E
:102804009A63FB6803F560631A4600231360FB6850
:1028140003F500631946FB6803F500631A460B6869
:102824001360BB6B012B0CD1FB6A002B04D100217C
:10283400786800F045F908E00121786800F040F973
:1028440003E00321786800F03BF91021786800F078
:10285400F3F80346002B01D00123FB75786800F0E0
:102864000FF90346002B01D00123FB75FB6803F528
:1028740000631A4600231361FB6803F500631A46DC
:1028840000235361FB6803F500631A460023D361F8
:1028940000233B6143E03B695A01FB68134403F5A1
:1028A40010631B6803F00043B3F1004F18D13B6978
:1028B400002B0AD13B695A01FB68134403F51063EA
:1028C4001A464FF00063136013E03B695A01FB683A
:1028D400134403F510631A464FF09043136008E065
:1028E4003B695A01FB68134403F510631A4600233D
:1028F40013603B695A01FB68134403F510631A46DD
:10290400002313613B695A01FB68134403F5106308
:102914001A464FF67F3393603B6901333B617B6A10
:102924003A699A42B7D300233B6143E03B695A01B9
:10293400FB68134403F530631B6803F00043B3F1F1
:10294400004F18D13B69002B0AD13B695A01FB683F
:10295400134403F530631A464FF00063136013E029
:102964003B695A01FB68134403F530631A464FF080
:102974009043136008E03B695A01FB68134403F574
:1029840030631A46002313603B695A01FB68134401
:1029940003F530631A46002313613B695A01FB684F
:1029A400134403F530631A464FF67F3393603B6953
:1029B40001333B617B6A3A699A42B7D3FB6803F5FA
:1029C40000631B69FA6802F5006223F480731361E3
:1029D4007B6800229A617B686FF080425A613B6B8E
:1029E400002B05D17B689B6943F010027B689A61D8
:1029F4007B689A690F4B13437A689361FB6B002BD6
:102A040005D07B689B6943F008027B689A61FB6C84
:102A1400012B07D17B689B6943F0804343F0040397
:102A24007A689361FB7D18461837BD46BDE880403F
:102A340004B0704700383C8080B485B000AF786043
:102A440039600023FB603B689B0143F020027B68F4
:102A54001A61FB680133FB60084A934201D90323DE
:102A640006E07B681B6903F02003202BF1D00023D0
:102A740018461437BD465DF8047B7047400D0300CB
:102A840080B485B000AF78600023FB607B681022BF
:102A94001A61FB680133FB60084A934201D903239E
:102AA40006E07B681B6903F01003102BF1D00023B0
:102AB40018461437BD465DF8047B7047400D03008B
:102AC40080B485B000AF78600B46FB707B68FB6018
:102AD400FB6803F500631A68FB78F96801F5006187
:102AE40013430B60002318461437BD465DF8047B7E
:102AF400704780B485B000AF78607B68FB60FB688A
:102B040003F560631B68FA6802F5606223F003034F
:102B14001360FB6803F500635B68FA6802F5006202
:102B240043F002035360002318461437BD465DF892
:102B3400047B704780B483B000AF78607B685B69C6
:102B440003F0010318460C37BD465DF8047B70475B
:102B540080B485B000AF78600023FB60FB6801336C
:102B6400FB60134A934201D903231AE07B681B6973
:102B7400002BF3DA0023FB607B681B6943F001023E
:102B84007B681A61FB680133FB60094A934201D9EF
:102B9400032306E07B681B6903F00103012BF1D0DA
:102BA400002318461437BD465DF8047B704700BF08
:102BB400400D030070B50D4D0D4C641BA410002690
:102BC400A64209D10B4D0C4C00F020F8641BA41054
:102BD4000026A64205D170BD55F8043B984701363E
:102BE400EEE755F8043B98470136F2E7482C040811
:102BF400482C0408482C04084C2C040802440346BE
:102C0400934200D1704703F8011BF9E7F8B500BF00
:102C1400F8BC08BC9E467047F8B500BFF8BC08BCB9
:042C24009E46704711
:102C28000000000000000000010203040607080974
:082C380000000000010203048A
:082C4000F4D5FF7F0100000044
:042C4800E901040892
:042C4C00C5010408B2
:0C2C50000024F40010000000010000004F
:0400000508040A657C
:00000001FF
